:100000000C942A000C9486000C943F000C943F0042
:100010000C943F000C943F000C943F000C943F0064
:100020000C943F000C943F000C943F000C943F0054
:100030000C943F000C943F000C943F000C943F0044
:100040000C943F000C943F000C943F000C943F0034
:100050000C943F0011241FBECFE5D8E0DEBFCDBF1A
:1000600010E0A0E6B0E0ECEFF7E002C005900D92E2
:10007000A036B107D9F70E9441000C94FC030C9400
:10008000000082E00E94C30081E00E94C3000E9441
:10009000B4000E942B0182E00E94020182E00E94D3
:1000A000D8000E94B9002FEF81EE94E021508040EB
:1000B0009040E1F700C0000082E00E94ED000E9445
:1000C000BE0082E00E9417018130A9F42FEF81EE7B
:1000D00094E0215080409040E1F700C0000082E0B1
:1000E0000E941701813039F482E00E9417018130AB
:1000F000D9F30E9430010E943401813019F40E942A
:10010000D800DFCF81E00E94ED00DBCF1F920F927D
:100110000FB60F9211242F933F934F935F936F93DA
:100120007F938F939F93AF93BF93EF93FF930E941F
:1001300030010E943401813019F40E94D80003C0BC
:1001400081E00E94ED00FF91EF91BF91AF919F91EF
:100150008F917F916F915F914F913F912F910F9070
:100160000FBE0F901F90189561E08BE20E9438013E
:10017000089561E08BE20E942702089560E08BE21F
:100180000E9427020895813049F018F0823059F01A
:10019000089561E080E20E943801089561E085E2FF
:1001A0000E943801089561E087E10E9438010895B6
:1001B000813049F018F0823059F0089561E080E212
:1001C0000E942702089561E085E20E9427020895B7
:1001D00061E087E10E9427020895813049F018F01C
:1001E000823059F0089560E080E20E94270208956D
:1001F00060E085E20E942702089560E087E10E94A6
:1002000027020895813049F018F0823059F008959E
:1002100060E08AE00E943801089560E08EE00E946C
:100220003801089560E086E10E9438010895813028
:1002300041F018F0823049F00CC08AE00E948C0333
:1002400008958EE00E948C03089586E10E948C033D
:10025000089580E0089561E08AE20E9438010895DF
:100260008AE20E94160308958AE20E948C03089590
:100270009DEC899F912D11249695969596956623D0
:1002800009F472C0613009F0E1C0923021F118F434
:10029000913039F008959330C1F1943009F44CC095
:1002A000089547B39DEC899F912D112496959695BD
:1002B0009695990F292F220F220F920F891B21E06B
:1002C00030E0B90102C0660F771F8A95E2F7CB01D3
:1002D000842B87BB089541B39DEC899F912D1124F8
:1002E00092959F70990F990F292F220F220F920F2D
:1002F000891B21E030E0B90102C0660F771F8A95A3
:10030000E2F7CB01842B81BB089544B399E8899F20
:10031000912D112492959F707EE1979F8019112451
:1003200021E030E0B90102C0660F771F8A95E2F73D
:10033000CB01842B84BB08954AB39DEC899F912DFA
:10034000112492959695977078E2979F80191124C1
:1003500021E030E0B90102C0660F771F8A95E2F70D
:10036000CB01842B8ABB0895923029F118F4913087
:1003700039F008959330D1F1943009F44FC00895C5
:1003800047B39DEC899F912D11249695969596954E
:10039000990F292F220F220F920F891B21E030E0A5
:1003A000B90102C0660F771F8A95E2F7CB018095ED
:1003B000842387BB089541B39DEC899F912D11241F
:1003C00092959F70990F990F292F220F220F920F4C
:1003D000891B21E030E0B90102C0660F771F8A95C2
:1003E000E2F7CB018095842381BB089544B399E85B
:1003F000899F912D112492959F707EE1979F80197E
:10040000112421E030E0B90102C0660F771F8A9500
:10041000E2F7CB018095842384BB08954AB39DEC19
:10042000899F912D112492959695977078E2979FC8
:100430008019112421E030E0B90102C0660F771F56
:100440008A95E2F7CB01809584238ABB08959DECC1
:10045000899F912D1124969596959695662309F47A
:1004600072C0613009F0E1C0923021F118F491308E
:1004700039F008959330C1F1943009F44CC00895D7
:1004800048B39DEC899F912D11249695969596954C
:10049000990F292F220F220F920F891B21E030E0A4
:1004A000B90102C0660F771F8A95E2F7CB01842B52
:1004B00088BB089542B39DEC899F912D112492959C
:1004C0009F70990F990F292F220F220F920F891BCE
:1004D00021E030E0B90102C0660F771F8A95E2F78C
:1004E000CB01842B82BB089545B399E8899F912D58
:1004F000112492959F707EE1979F8019112421E02D
:1005000030E0B90102C0660F771F8A95E2F7CB0190
:10051000842B85BB08954BB39DEC899F912D1124AD
:1005200092959695977078E2979F8019112421E013
:1005300030E0B90102C0660F771F8A95E2F7CB0160
:10054000842B8BBB0895923029F118F4913039F047
:1005500008959330D1F1943009F44FC0089548B311
:100560009DEC899F912D1124969596959695990FBE
:10057000292F220F220F920F891B21E030E0B901B1
:1005800002C0660F771F8A95E2F7CB01809584231E
:1005900088BB089542B39DEC899F912D11249295BB
:1005A0009F70990F990F292F220F220F920F891BED
:1005B00021E030E0B90102C0660F771F8A95E2F7AB
:1005C000CB018095842382BB089545B399E8899F28
:1005D000912D112492959F707EE1979F801911248F
:1005E00021E030E0B90102C0660F771F8A95E2F77B
:1005F000CB018095842385BB08954BB39DEC899FE7
:10060000912D112492959695977078E2979F801975
:10061000112421E030E0B90102C0660F771F8A95EE
:10062000E2F7CB01809584238BBB08959DEC899FD5
:10063000912D1124969596959695923021F118F466
:10064000913039F008959330C1F1943009F44CC0E1
:10065000089548B39DEC899F912D11249695969508
:100660009695990F292F220F220F920F891B21E0B7
:1006700030E0B90102C0660F771F8A95E2F7CB011F
:10068000842788BB089542B39DEC899F912D112446
:1006900092959F70990F990F292F220F220F920F79
:1006A000891B21E030E0B90102C0660F771F8A95EF
:1006B000E2F7CB01842782BB089545B399E8899F6F
:1006C000912D112492959F707EE1979F801911249E
:1006D00021E030E0B90102C0660F771F8A95E2F78A
:1006E000CB01842785BB08954BB39DEC899F912D49
:1006F000112492959695977078E2979F801911240E
:1007000021E030E0B90102C0660F771F8A95E2F759
:10071000CB0184278BBB08959DEC899F912D1124DB
:10072000969596959695923011F118F4913039F08E
:1007300061C09330A1F1943009F446C05BC026B388
:1007400030E09DEC899F912D112496959695969574
:10075000990F492F440F440F940F891BA90102C020
:10076000559547958A95E2F7CA018170089520B39F
:1007700030E09DEC899F912D112492959F70990FE7
:10078000990F492F440F440F940F891BA90102C0F0
:10079000559547958A95E2F7CA018170089523B36C
:1007A00030E099E8899F912D112492959F705EE128
:1007B000959F80191124A90102C0559547958A95E6
:1007C000E2F7CA018170089529B330E09DEC899F5A
:1007D000912D112492959695977058E2959F8019C6
:1007E0001124A90102C0559547958A95E2F7CA01DF
:0C07F0008170089580E00895F894FFCF18
:00000001FF
