:100000000C942A000C945F000C9447000C94470059
:100010000C9447000C9447000C9447000C94470044
:100020000C9447000C9447000C9447000C948400F7
:100030000C9447000C9447000C9447000C94470024
:100040000C9447000C9447000C9447000C94470014
:100050000C94470011241FBECFE5D8E0DEBFCDBF12
:1000600010E0A0E6B0E0E6E7F6E002C005900D92F1
:10007000A036B107D9F720E0A0E6B0E001C01D929C
:10008000A536B207E1F70E9449000C9439030C949D
:1000900000000E94E50281E00E94C00082E00E9410
:1000A000E7006CE271E080E090E00E94F20282E002
:1000B0000E94FC008130D9F70E941503F8CF1F92EF
:1000C0000F920FB60F9211242F933F934F935F938C
:1000D0006F937F938F939F93AF93BF93EF93FF9310
:1000E00081E00E94D500FF91EF91BF91AF919F9168
:1000F0008F917F916F915F914F913F912F910F90D1
:100100000FBE0F901F9018951F920F920FB60F926F
:1001100011242F933F934F935F936F937F938F930C
:100120009F93AF93BF93EF93FF93809160008F5F96
:100130008093600090E0A0E0B0E0409161005091B9
:100140006200609163007091640084179507A607B0
:10015000B70729F481E00E94D50010926000FF915A
:10016000EF91BF91AF919F918F917F916F915F912F
:100170004F913F912F910F900FBE0F901F901895A8
:10018000813049F018F0823059F0089561E080E242
:100190000E941001089561E085E20E941001089517
:1001A00061E087E10E9410010895813041F018F06C
:1001B000823049F0089580E20E94FF01089585E2AF
:1001C0000E94FF01089587E10E94FF010895813098
:1001D00049F018F0823059F0089560E08AE00E94FA
:1001E0001001089560E08EE00E941001089560E023
:1001F00086E10E9410010895813041F018F08230AC
:1002000049F00CC08AE00E94750208958EE00E94B9
:100210007502089586E10E947502089580E00895B0
:100220009DEC899F912D1124969596959695662320
:1002300009F472C0613009F0E1C0923021F118F484
:10024000913039F008959330C1F1943009F44CC0E5
:10025000089547B39DEC899F912D1124969596950D
:100260009695990F292F220F220F920F891B21E0BB
:1002700030E0B90102C0660F771F8A95E2F7CB0123
:10028000842B87BB089541B39DEC899F912D112448
:1002900092959F70990F990F292F220F220F920F7D
:1002A000891B21E030E0B90102C0660F771F8A95F3
:1002B000E2F7CB01842B81BB089544B399E8899F71
:1002C000912D112492959F707EE1979F80191124A2
:1002D00021E030E0B90102C0660F771F8A95E2F78E
:1002E000CB01842B84BB08954AB39DEC899F912D4B
:1002F000112492959695977078E2979F8019112412
:1003000021E030E0B90102C0660F771F8A95E2F75D
:10031000CB01842B8ABB0895923029F118F49130D7
:1003200039F008959330D1F1943009F44FC0089515
:1003300047B39DEC899F912D11249695969596959E
:10034000990F292F220F220F920F891B21E030E0F5
:10035000B90102C0660F771F8A95E2F7CB0180953D
:10036000842387BB089541B39DEC899F912D11246F
:1003700092959F70990F990F292F220F220F920F9C
:10038000891B21E030E0B90102C0660F771F8A9512
:10039000E2F7CB018095842381BB089544B399E8AB
:1003A000899F912D112492959F707EE1979F8019CE
:1003B000112421E030E0B90102C0660F771F8A9551
:1003C000E2F7CB018095842384BB08954AB39DEC6A
:1003D000899F912D112492959695977078E2979F19
:1003E0008019112421E030E0B90102C0660F771FA7
:1003F0008A95E2F7CB01809584238ABB08959DEC12
:10040000899F912D1124969596959695923021F17C
:1004100018F4913039F008959330C1F1943009F413
:100420004CC0089548B39DEC899F912D1124969559
:1004300096959695990F292F220F220F920F891BBF
:1004400021E030E0B90102C0660F771F8A95E2F71C
:10045000CB01842788BB089542B39DEC899F912DE1
:10046000112492959F70990F990F292F220F220F17
:10047000920F891B21E030E0B90102C0660F771F9F
:100480008A95E2F7CB01842782BB089545B399E8AA
:10049000899F912D112492959F707EE1979F8019DD
:1004A000112421E030E0B90102C0660F771F8A9560
:1004B000E2F7CB01842785BB08954BB39DEC899F60
:1004C000912D112492959695977078E2979F8019B7
:1004D000112421E030E0B90102C0660F771F8A9530
:1004E000E2F7CB0184278BBB08959DEC899F912D6A
:1004F0001124969596959695923011F118F49130B5
:1005000039F061C09330A1F1943009F446C05BC06A
:1005100026B330E09DEC899F912D112496959695F8
:100520009695990F492F440F440F940F891BA901E9
:1005300002C0559547958A95E2F7CA0181700895E2
:1005400020B330E09DEC899F912D112492959F70EE
:10055000990F990F492F440F440F940F891BA9013C
:1005600002C0559547958A95E2F7CA0181700895B2
:1005700023B330E099E8899F912D112492959F70C3
:100580005EE1959F80191124A90102C055954795F8
:100590008A95E2F7CA018170089529B330E09DEC95
:1005A000899F912D112492959695977058E2959F69
:1005B00080191124A90102C0559547958A95E2F743
:1005C000CA018170089580E0089583B7877F83BF53
:1005D00083B78F7B83BF8FB780688FBF89B78160F8
:1005E00089BF08959B01AC01A8EEB3E00E942E03E1
:1005F000DC01CB01072E7EE0B695A79597958795F0
:100600007A95D1F7702D8093610090936200A0934A
:100610006300B093640083B7816083BF83B78D7F2D
:1006200083BF83B7846083BF089583B78E7F83BF02
:1006300083B78D7F83BF83B78B7F83BF0895A29FCE
:10064000B001B39FC001A39F700D811D1124911DA6
:10065000B29F700D811D1124911D08950E941F03EA
:10066000A59F900DB49F900DA49F800D911D112406
:060670000895F894FFCF8D
:00000001FF
