S01700004763634170706C69636174696F6E312E737265635B
S11300000C9452000C945C000C945C000C945C0006
S11300100C945C000C945C000C945C000C945C00EC
S11300200C945C000C945C000C945C000C945C00DC
S11300300C945C000C945C000C945C000C945C00CC
S11300400C945C000C945C000C945C000C945C00BC
S11300500C945C00B300C400D500E600F70008016E
S113006019012A013B014C01740185019601A70184
S1130070B801C901DA01EB01FC010D025502660267
S1130080770288029902AA02BB02CC02DD02EE02C8
S1130090150326033703480359036A037B038C03C0
S11300A09D03AE0311241FBECFE5D8E0DEBFCDBF54
S11300B00E945E000C94EE050C9400000E946900FE
S11300C08CE00E9486008CE00E94340280E090E084
S11300D0089561E08BE00E94FB0361E08CE00E94E4
S11300E0FB0361E08DE00E94FB0361E08CE20E946F
S11300F0FB0361E08DE20E94FB0361E08EE20E945B
S1130100FB0361E08FE20E94FB0308958F929F92AC
S1130110AF92BF92CF92DF92EF92FF92CF939DEC7A
S1130120899FC12C1124C694C694C6942C2D220FE9
S1130130922F990F990F920F882E891AC4E6D12C09
S1130140912C61E08CE00E94EA0460E08BE00E9464
S1130150EA048AE0C816D10408F0AEC0F601E65DF0
S1130160FF4F0C94D90560E08CE20E94EA0460E041
S11301708DE20E94EA0460E08EE20E94EA0460E0FC
S11301808FE20E94EA0498C061E08CE20E94EA04D3
S113019060E08DE20E94EA0460E08EE20E94EA04DC
S11301A060E08FE20E94EA0487C060E08CE20E9473
S11301B0EA0461E08DE20E94EA0460E08EE20E94BB
S11301C0EA0460E08FE20E94EA0476C061E08CE217
S11301D00E94EA0461E08DE20E94EA0460E08EE29B
S11301E00E94EA0460E08FE20E94EA0465C060E0D5
S11301F08CE20E94EA0460E08DE20E94EA0461E07D
S11302008EE20E94EA0460E08FE20E94EA0454C095
S113021061E08CE20E94EA0460E08DE20E94EA045C
S113022061E08EE20E94EA0460E08FE20E94EA0448
S113023043C060E08CE20E94EA0461E08DE20E9427
S1130240EA0461E08EE20E94EA0460E08FE20E9428
S1130250EA0432C061E08CE20E94EA0461E08DE2CB
S11302600E94EA0461E08EE20E94EA0460E08FE208
S11302700E94EA0421C060E08CE20E94EA0460E08B
S11302808DE20E94EA0460E08EE20E94EA0461E0EA
S11302908FE20E94EA0410C061E08CE20E94EA044A
S11302A060E08DE20E94EA0460E08EE20E94EA04CB
S11302B061E08FE20E94EA048FE39CE90197F1F781
S11302C000C0000060E08CE00E94EA0461E08BE082
S11302D00E94EA049AE08916910408F0AEC0F40181
S11302E0EC5CFF4F0C94D90560E08CE20E94EA04B8
S11302F060E08DE20E94EA0460E08EE20E94EA047B
S113030060E08FE20E94EA0498C061E08CE20E94FF
S1130310EA0460E08DE20E94EA0460E08EE20E945A
S1130320EA0460E08FE20E94EA0487C060E08CE2A5
S11303300E94EA0461E08DE20E94EA0460E08EE239
S11303400E94EA0460E08FE20E94EA0476C061E061
S11303508CE20E94EA0461E08DE20E94EA0460E01B
S11303608EE20E94EA0460E08FE20E94EA0465C023
S113037060E08CE20E94EA0460E08DE20E94EA04FC
S113038061E08EE20E94EA0460E08FE20E94EA04E7
S113039054C061E08CE20E94EA0460E08DE20E94B5
S11303A0EA0461E08EE20E94EA0460E08FE20E94C7
S11303B0EA0443C060E08CE20E94EA0461E08DE25A
S11303C00E94EA0461E08EE20E94EA0460E08FE2A7
S11303D00E94EA0432C061E08CE20E94EA0461E017
S11303E08DE20E94EA0461E08EE20E94EA0460E089
S11303F08FE20E94EA0421C060E08CE20E94EA04D9
S113040060E08DE20E94EA0460E08EE20E94EA0469
S113041061E08FE20E94EA0410C061E08CE20E9475
S1130420EA0460E08DE20E94EA0460E08EE20E9449
S1130430EA0461E08FE20E94EA048FE39CE90197F9
S1130440F1F700C0000060E08BE00E94EA04C150B4
S113045009F077CECF91FF90EF90DF90CF90BF90CF
S1130460AF909F908F900895AF92BF92CF92DF92FA
S1130470EF92FF920F931F93CF93DF93A82EB12C8B
S1130480C12CD12C8EC161E08CE00E94EA0460E0B2
S11304908BE00E94EA048AE0E816F10408F0AEC09A
S11304A0F701E25CFF4F0C94D90560E08CE20E94F6
S11304B0EA0460E08DE20E94EA0460E08EE20E94B9
S11304C0EA0460E08FE20E94EA0498C061E08CE2F2
S11304D00E94EA0460E08DE20E94EA0460E08EE299
S11304E00E94EA0460E08FE20E94EA0487C060E0B0
S11304F08CE20E94EA0461E08DE20E94EA0460E07A
S11305008EE20E94EA0460E08FE20E94EA0476C070
S113051061E08CE20E94EA0461E08DE20E94EA0458
S113052060E08EE20E94EA0460E08FE20E94EA0446
S113053065C060E08CE20E94EA0460E08DE20E9403
S1130540EA0461E08EE20E94EA0460E08FE20E9425
S1130550EA0454C061E08CE20E94EA0460E08DE2A7
S11305600E94EA0461E08EE20E94EA0460E08FE205
S11305700E94EA0443C060E08CE20E94EA0461E065
S11305808DE20E94EA0461E08EE20E94EA0460E0E7
S11305908FE20E94EA0432C061E08CE20E94EA0425
S11305A061E08DE20E94EA0461E08EE20E94EA04C6
S11305B060E08FE20E94EA0421C060E08CE20E94C5
S11305C0EA0460E08DE20E94EA0460E08EE20E94A8
S11305D0EA0461E08FE20E94EA0410C061E08CE268
S11305E00E94EA0460E08DE20E94EA0460E08EE288
S11305F00E94EA0461E08FE20E94EA048FE39CE92E
S11306000197F1F700C0000060E08CE00E94EA046A
S113061061E08BE00E94EA040A30110508F0AEC0E4
S1130620F801E85BFF4F0C94D90560E08CE20E946E
S1130630EA0460E08DE20E94EA0460E08EE20E9437
S1130640EA0460E08FE20E94EA0498C061E08CE270
S11306500E94EA0460E08DE20E94EA0460E08EE217
S11306600E94EA0460E08FE20E94EA0487C060E02E
S11306708CE20E94EA0461E08DE20E94EA0460E0F8
S11306808EE20E94EA0460E08FE20E94EA0476C0EF
S113069061E08CE20E94EA0461E08DE20E94EA04D7
S11306A060E08EE20E94EA0460E08FE20E94EA04C5
S11306B065C060E08CE20E94EA0460E08DE20E9482
S11306C0EA0461E08EE20E94EA0460E08FE20E94A4
S11306D0EA0454C061E08CE20E94EA0460E08DE226
S11306E00E94EA0461E08EE20E94EA0460E08FE284
S11306F00E94EA0443C060E08CE20E94EA0461E0E4
S11307008DE20E94EA0461E08EE20E94EA0460E065
S11307108FE20E94EA0432C061E08CE20E94EA04A3
S113072061E08DE20E94EA0461E08EE20E94EA0444
S113073060E08FE20E94EA0421C060E08CE20E9443
S1130740EA0460E08DE20E94EA0460E08EE20E9426
S1130750EA0461E08FE20E94EA0410C061E08CE2E6
S11307600E94EA0460E08DE20E94EA0460E08EE206
S11307700E94EA0461E08FE20E94EA048FE39CE9AC
S11307800197F1F700C0000060E08BE00E94EA04EA
S1130790219709F078CE9FEFC91AD90AAC14BD0489
S11307A0F8F09601ADECBCEC0E94DF0596958795B8
S11307B096958795969587957C01FF249C01220F39
S11307C0331F880F991F880F991F880F991F820F55
S11307D0931F8601081B190B1127C2E3D0E053CEE7
S11307E0DF91CF911F910F91FF90EF90DF90CF9009
S11307F0BF90AF9008959DEC899F912D11249695FB
S113080096959695662309F472C0613009F0E1C0AB
S1130810923021F118F4913039F008959330C1F1F8
S1130820943009F44CC0089547B39DEC899F912DF1
S11308301124969596959695990F292F220F220F9C
S1130840920F891B21E030E0B90102C0660F771FC7
S11308508A95E2F7CB01842B87BB089541B39DECC5
S1130860899F912D112492959F70990F990F292F8B
S1130870220F220F920F891B21E030E0B90102C040
S1130880660F771F8A95E2F7CB01842B81BB08950D
S113089044B399E8899F912D112492959F707EE12C
S11308A0979F8019112421E030E0B90102C0660F3E
S11308B0771F8A95E2F7CB01842B84BB08954AB352
S11308C09DEC899F912D112492959695977078E2CD
S11308D0979F8019112421E030E0B90102C0660F0E
S11308E0771F8A95E2F7CB01842B8ABB0895923057
S11308F029F118F4913039F008959330D1F19430FE
S113090009F44FC0089547B39DEC899F912D11249C
S1130910969596959695990F292F220F220F920F4F
S1130920891B21E030E0B90102C0660F771F8A9568
S1130930E2F7CB018095842387BB089541B39DECF6
S1130940899F912D112492959F70990F990F292FAA
S1130950220F220F920F891B21E030E0B90102C05F
S1130960660F771F8A95E2F7CB018095842381BBBC
S1130970089544B399E8899F912D112492959F700D
S11309807EE1979F8019112421E030E0B90102C073
S1130990660F771F8A95E2F7CB018095842384BB89
S11309A008954AB39DEC899F912D112492959695B3
S11309B0977078E2979F8019112421E030E0B90103
S11309C002C0660F771F8A95E2F7CB0180958423D6
S11309D08ABB08959DEC899F912D11249695969537
S11309E09695662309F472C0613009F0E1C0923033
S11309F021F118F4913039F008959330C1F1943015
S1130A0009F44CC0089548B39DEC899F912D11249D
S1130A10969596959695990F292F220F220F920F4E
S1130A20891B21E030E0B90102C0660F771F8A9567
S1130A30E2F7CB01842B88BB089542B39DEC899FD8
S1130A40912D112492959F70990F990F292F220FA0
S1130A50220F920F891B21E030E0B90102C0660F1A
S1130A60771F8A95E2F7CB01842B82BB089545B3A7
S1130A7099E8899F912D112492959F707EE1979F0B
S1130A808019112421E030E0B90102C0660F771FFC
S1130A908A95E2F7CB01842B85BB08954BB39DEC7B
S1130AA0899F912D112492959695977078E2979F3E
S1130AB08019112421E030E0B90102C0660F771FCC
S1130AC08A95E2F7CB01842B8BBB0895923029F1F0
S1130AD018F4913039F008959330D1F1943009F439
S1130AE04FC0089548B39DEC899F912D112496958C
S1130AF096959695990F292F220F220F920F891BF5
S1130B0021E030E0B90102C0660F771F8A95E2F751
S1130B10CB018095842388BB089542B39DEC899FC3
S1130B20912D112492959F70990F990F292F220FBF
S1130B30220F920F891B21E030E0B90102C0660F39
S1130B40771F8A95E2F7CB018095842382BB0895B1
S1130B5045B399E8899F912D112492959F707EE168
S1130B60979F8019112421E030E0B90102C0660F7B
S1130B70771F8A95E2F7CB018095842385BB08957E
S1130B804BB39DEC899F912D112492959695977066
S1130B9078E2979F8019112421E030E0B90102C066
S1130BA0660F771F8A95E2F7CB01809584238BBB70
S1130BB00895EE0FFF1F0590F491E02D0994A29F74
S1130BC0B001B39FC001A39F700D811D1124911D1D
S1130BD0B29F700D811D1124911D0895F894FFCFCB
S9030000FC
